:020000040800F2
:10000000D88B01205D020008532D00086B2A0008E0
:10001000512D0008A5140008553500080000000007
:100020000000000000000000000000009D0100082A
:100030005915000800000000F9010008A12E000871
:1000400077020008770200087702000877020008AC
:10005000770200087702000877020008770200089C
:10006000770200087702000877020008770200088C
:10007000770200087702000877020008770200087C
:10008000770200087702000877020008770200086C
:10009000770200087702000877020008770200085C
:1000A000770200087702000877020008770200084C
:1000B000770200087702000877020008770200083C
:1000C000770200087702000877020008770200082C
:1000D000770200087702000877020008770200081C
:1000E000770200087702000877020008770200080C
:1000F00077020008770200087702000877020008FC
:1001000077020008770200087702000877020008EB
:1001100077020008770200087702000877020008DB
:10012000A914000877020008770200087702000887
:1001300077020008770200087702000877020008BB
:1001400077020008770200087702000877020008AB
:10015000770200087702000877020008770200089B
:10016000770200087702000877020008770200088B
:1001700077020008770200087702000800000000FC
:100180007702000877020008DFF80CD001F0A4F82D
:1001900000480047453E0008D88B01202C4B1968C9
:1001A0000868B0E8F04F80F30988BFF36F8F4FF015
:1001B000000080F3118870470000000008480068C4
:1001C000006880F308884FF0000080F3148862B65E
:1001D00061B6BFF34F8FBFF36F8F00DF00BF00BF6B
:1001E00008ED00E0DFF80C00016841F470010160E7
:1001F000704700BF88ED00E0EFF30980BFF36F8F19
:10020000134B1A681EF0100F08BF20ED108A20E96A
:10021000F04F106009B44FF0500080F31188BFF325
:100220004F8FBFF36F8F04F0E7FB4FF0000080F3B8
:10023000118809BC19680868B0E8F04F1EF0100F6B
:1002400008BFB0EC108A80F30988BFF36F8F704746
:1002500000000020EFF3058070470000064880474B
:1002600006480047FEE7FEE7FEE7FEE7FEE7FEE79B
:10027000FEE7FEE7FEE7FEE7592F000889010008C8
:100280009FED3D0A5FEA920C57D000BFD0ED000A07
:1002900090ED011A0B1D60EEA00A083041EE010A34
:1002A000F5EEC00AF1EE10FAA6BFB1EEE01A81ED4C
:1002B000001A81ED000AD0ED000A90ED011A191D17
:1002C00060EEA00A083041EE010AF5EEC00AF1EE38
:1002D00010FAA6BFB1EEE01A83ED001A83ED000A12
:1002E000D0ED000A90ED011A0B1D60EEA00A083057
:1002F00041EE010AF5EEC00AF1EE10FAA6BFB1EE2A
:10030000E01A81ED001A81ED000A90ED001AD0ED9F
:10031000010A191D21EE011A083000EEA01AB5EEEF
:10032000C01AF1EE10FAA6BFF1EEC10AC3ED000A41
:1003300083ED000ABCF1010CA8D112F0030208BF42
:10034000704700BFD0ED000A90ED011A0B4660EE39
:10035000A00A091D083041EE010AF5EEC00AF1EECF
:1003600010FAA6BFB1EEE01A83ED001A83ED000A81
:10037000521EE7D170470000000000002DE9F04F49
:100380008D082DED048B82B00026AC4634460195D5
:1003900006EB0C0909EB0C0A0AEB0C0800EBC6078C
:1003A00000EBC90900EBCA0A00EBC80897ED003A58
:1003B000D9ED003ADAED006A98ED006A97ED010A8E
:1003C000DAED014A33EE265A73EE860A99ED014AB8
:1003D000D8ED015A30EE241A4FEA440B02EBCB0E53
:1003E00070EE644A74EE251A35EE200A9EED002A5E
:1003F000DEED012A87ED000A31EE210A73EEC63ADE
:1004000034EE656A87ED010A35EE600A33EE663A2E
:1004100071EE610A02EBC40774EEE35A33EE064A4A
:1004200097ED005A73EEA41AD7ED014A33EE461A3F
:1004300024EE056A0BEB040725EE855A02EBC7078D
:1004400060EE026A65EEA45A24EE244A97ED003A63
:10045000D7ED013A60EEA24A20EE822A21EE037A1D
:1004600020EE220A61EEA30A21EE833A61EE231AFE
:1004700076EEA42A32EE400A36EE251A75EE443A9C
:10048000C9ED002A77EE200A89ED010A73EE611AA0
:100490008AED001ACAED013AC8ED000AC8ED011A4A
:1004A0001C446D1E06F101067FF472AF4FF6FF7417
:1004B00004EA830B019B0093042B7CD966464FEA28
:1004C0009C0C4FF00008C146ACF1010E4FEA480306
:1004D00003EB080402EBC30302EBC80593ED003AFB
:1004E000D3ED014A02EBC40395ED005AD5ED015A54
:1004F00093ED006A93ED014AD8444B4603EB0C049C
:1005000004EB0C0707EB0C0A00EBC30500EBC70775
:1005100000EBC40400EBCA0AD5ED003A97ED007A6F
:10052000D4ED008A9AED008A95ED010AD4ED010A16
:10053000D7ED017ADAED011A33EEC72A70EE676A59
:1005400070EEE12A33EE877A78EE883A30EE270AA9
:1005500038EEC81A70EEA11A72EE227A32EE622AD2
:1005600077EE232A70EE618A36EEC18A30EE210AD8
:1005700077EE630A31EE261AC5ED002A85ED010AF1
:1005800028EE050A67EE856A28EE258A20EE837A32
:1005900020EEA49A68EE831A62EE062A61EE063A0D
:1005A00062EE040A67EEA57A68EEA48A21EE041AC8
:1005B00036EE882A00E027E077EE286A71EEC91A45
:1005C00030EE670AC4ED006A32EE811AC4ED011AFA
:1005D00073EEE00A87ED002A87ED010A8AED001A22
:1005E0003344CAED010A8B4288D309F10109F14570
:1005F0007FF66CAF4FF6FF7303EA8B0B009B9B08F3
:100600000093042B3FF65AAFDDF8041090ED000A7A
:10061000D0ED042A90ED025A90ED031AD0ED064A6F
:1006200090ED073A30EE222AD0ED011AD0ED050AFE
:1006300075EE243A31EE034A30EE620A71EEA02ADA
:1006400031EE431A32EE233A71EEE00A75EE641A87
:1006500072EE844A32EE632A72EEC43A80ED003ABA
:1006600070EE012AC0ED014A30EEE14A80ED022A27
:1006700030EE410AC0ED033A71EEA00AC0ED042A43
:1006800080ED054A80ED060AC0ED070A2030491EBC
:10069000BCD102B0BDEC048BBDE8F08F2DE9F04F6A
:1006A0004FEA910A2DED048B82B00024D446A04677
:1006B000CDF804A004EB0C0505EB0C0606EB0C09C9
:1006C00000EBC40700EBC60600EBC50500EBC9094B
:1006D000D7ED011AD6ED012A95ED006AD9ED006A31
:1006E000D7ED005A96ED007AD5ED010A99ED011A81
:1006F00036EE262A71EEA23A35EE873A71EEE21A0C
:1007000030EE815A70EEC12A4FEA480B02EBCB0E55
:1007100073EE020A9EED004ADEED014AC7ED000AC3
:1007200073EE850A36EE666A75EEC75AC7ED010AA2
:1007300033EE422A02EBC80731EE861A33EEC53A91
:1007400071EEC61A97ED006A97ED015A75EEE20A4E
:100750000BEB080702EBC70775EEA22AD7ED005A8C
:10076000D7ED013A60EE866A22EE047A62EEA57A4F
:1007700023EE044A21EE066A61EEA55A60EE850A70
:1007800023EE243A22EE242A21EE051A61EEA31A62
:1007900062EEA32A76EE203A37EE433A74EE020A6E
:1007A00036EEC11A85ED003A77EEE11AC5ED010A81
:1007B00035EEA22A86ED001AC6ED013AC9ED001AFF
:1007C000641C89ED012A9844BAF1010A7FF472AFE2
:1007D0004FF6FF7404EA830B019B0093042B7CD932
:1007E00066464FEA9C0C4FF00008C146ACF1010E82
:1007F0004FEA480303EB080402EBC30302EBC8050E
:10080000D3ED003A93ED017A02EBC403D5ED006A13
:10081000D5ED015AD3ED004A93ED013AD8444B4649
:1008200003EB0C0404EB0C0707EB0C0A00EBC3050D
:1008300000EBC70700EBC40400EBCA0A95ED012AE0
:1008400097ED018A95ED001AD4ED008AD4ED017A76
:1008500097ED009ADAED001ADAED010A32EE485A05
:1008600071EE492A38EEE14A32EE082A37EEA08AC4
:1008700037EEE06A78EEA11A31EE091A75EE048AB5
:1008800072EEC67A72EE862A71EE610A31EE211A94
:1008900035EE444A32EE489A85ED001A32EE081AD7
:1008A00028EEA66A27EEA65A68EEA58A85ED011AFB
:1008B00020EEA31A69EE231A22EEA42A24EE248A3B
:1008C00067EEA57A29EE079A60EE870A24EE034ABE
:1008D00062EE832A35EE685A00E027E036EE276A9A
:1008E00071EE497A31EEA01A72EE440AC4ED007A34
:1008F00084ED011A78EE221A87ED005A87ED016A1D
:10090000CAED000A3344CAED011A8B4288D309F1BB
:100910000109F1457FF66CAF4FF6FF7303EA8B0BCD
:10092000009B9B080093042B3FF65AAFDDF80410A0
:1009300090ED003AD0ED044AD0ED032A90ED071A6D
:1009400090ED024AD0ED061AD0ED013AD0ED050A3D
:1009500033EE242A72EE815A33EE643A34EE215A91
:1009600073EEA04A73EEE03A32EEC11A74EE610AF9
:1009700032EE454A72EE052A74EEA51A34EEE55AB7
:1009800073EE414A33EEA02A33EE011A33EEE03A19
:1009900062EE805A61EE800A64EE003A65EE002A4B
:1009A000C0ED005A64EE801AC0ED010A22EE002A62
:1009B000C0ED023A21EE004AC0ED032A23EE001AF0
:1009C000C0ED041A80ED052A80ED064A80ED071A75
:1009D0002030491EACD102B0BDEC048BBDE8F08FD5
:1009E00070B504460D4680782188A3896268012885
:1009F0000ED02846FFF7C2FCE078012818BF70BD72
:100A0000E28921882846A368BDE8704000F066B8F6
:100A100094ED040A2846FFF741FEEDE710B401808B
:100A2000234C446082704FF0000CC370B1F5807F9E
:100A300020D004DC10292FD0402923D005E0B1F5C7
:100A4000806F0FD0B1F5805F04D04FF0FF3C10BC39
:100A50006046704701218181C18116499FED160AC8
:100A6000816016E004218181C18114499FED140A3F
:100A700081600EE010218181C18112499FED120A2F
:100A8000816006E040218181C18110499FED100AFB
:100A9000816080ED040ADAE74FF480718181C181C1
:100AA0000C499FED0D0A816080ED040ACFE700003C
:100AB000F05B0008F053000800008039F65300088E
:100AC0000000803A0E5400080000803B6E5400087D
:100AD0000000803CEE5500080000803D2DE9F0014B
:100AE0004E0801244FF0000C04EB51076146A6F1BB
:100AF00002082CE061452AD200EBCC0500EBC104D2
:100B0000D5ED000A94ED000AC4ED000A85ED000A57
:100B1000D5ED010A94ED010AC4ED010A85ED010A43
:100B2000CC1900EBC4050CEB070400EBC40495EDF5
:100B3000000AD4ED000AC5ED000A84ED000AD4EDE8
:100B4000010A95ED010AC5ED010A84ED010A00EBE9
:100B5000C104B44400EBCC0C94ED020ADCED000AB5
:100B6000891CC4ED020A8CED000ADCED010A94ED4B
:100B7000030AC4ED030A8CED010AB3F800C089B280
:100B800003EB42034145B5D9BDE8F00170472DE9BB
:100B9000F0074D0801244FF0000C04EB51066146AC
:100BA000A5F102082BE0614529D250F8314050F8F8
:100BB0003C7040F8317040F83C4000EBC10900EB5C
:100BC000CC04D9F80470D4F804A0C9F804A0676074
:100BD0008C190CEB060750F8349050F837A040F809
:100BE00034A040F8379000EBC40400EBC707D4F8FA
:100BF0000490D7F804A0C4F804A0C7F8049000EB50
:100C0000C104AC44A76850F83C90C4F8089040F880
:100C10003C7000EBCC0CE768DCF80490C4F80C9056
:100C2000CCF80470B3F800C0891C03EB42034145C3
:100C3000B9D9BDE8F00770472DE9F00F01244F083E
:100C400004EB51084FF0000C7C0804BFBDE8F00F26
:100C50007047014600EB8805002614E0BCEB460F08
:100C600011D950F82CA0D1F80090C1F800A040F89C
:100C70002C900CEB0809D5F800A050F829B0C5F865
:100C800000B040F829A0BC4451F8049F50F82CA0B3
:100C900041F804AB40F82C90B3F800C003EB4203DA
:100CA000641E05F1080506F10106D7D1BDE8F00F75
:100CB00070472DE9F05F0546002092469B46884626
:100CC0000646814640241BE02846414647462246C8
:100CD00000F0ACF953465A46C01A914110D3114660
:100CE0001846224600F093F92D1A67EB01084F468B
:100CF00022460120002100F08AF917EB00094E413D
:100D0000201EA4F10104DFDC484631462A46434652
:100D1000BDE8F09F40EA01039B0703D009E008C942
:100D2000121F08C0042AFAD203E011F8013B00F8B0
:100D3000013B521EF9D270472DE9FE4F804681EAF1
:100D40000300C00F0C46009021F0004123F0004545
:100D5000B8EB0200A94105D24046214690461C4608
:100D60000B46024623F00040104347D0270DC7F33F
:100D70000A00C3F30A510290401A019040286BDA2E
:100D8000C3F3130040F4801B0098924620B1002367
:100D9000D2EB030A63EB0B0B01985946C0F14002FA
:100DA000504600F034F906460D4650465946019A21
:100DB00000F04CF910EB08006141002487EA115261
:100DC00084EAE7731A4340D0009A62B3019A012A79
:100DD0004FEA075215DC001B61EB02014FF00042A5
:100DE00002EA0752CDE90042001C41F5801132466B
:100DF0002B4600F083F903B0BDE8F08F4046214652
:100E0000F9E7001B61EB0201001C41F5801300189B
:100E10005B412018A2F5001747EB030140EAD570AB
:100E2000B6196D4111E06D084FEA360645EAC07506
:100E30004FEA0752001B61EB0201001C41F58011D3
:100E400049084FEA30000019514132462B4603B0A1
:100E5000BDE8F04F00F043B90098012240000023A4
:100E6000D0EB020263EBE073009821464FEAE07496
:100E7000B8EB000061EB0401E9E783F000435BE7B6
:100E800081F0004158E72DE9FE4F81EA030404F0A8
:100E9000004421F0004100944FF0000B23F0004388
:100EA00050EA01045ED052EA03045BD0C3F30A5453
:100EB000C1F30A552C44A4F2F3340194A0FB02546C
:100EC000C1F3130141F48011C3F3130343F48013FE
:100ED00001FB024400FB034E840A970A44EA815452
:100EE00047EA8357A4FB076802958D0A05FB07852F
:100EF0004FEA932C04FB0C542705029D4FEA065839
:100F000047EA1637B5EB08056EEB070C870E920E15
:100F100047EA811742EA8312A7FB0201B6EB0B01F5
:100F200064EB00042B0D43EA0C335E1844EB1C50B9
:100F3000DA465146E7FB0201C5F313044FEA0B33CF
:100F400043EA14534FEA0432019C43EA0603A4F136
:100F50000C040294009CCDE900B400F0CFF803B07B
:100F6000BDE8F08F00200146F9E70EB540F23341AD
:100F700002910021CDE900110A460B4600F0BEF8AF
:100F800003B000BD00F0004230F000400AD0C10DB7
:100F900001F56071C0F3160042EA0151C208400732
:100FA0001143704700200146704701F0004330B400
:100FB00021F0004150EA010206D00A0DA2F560724C
:100FC000C1F31301002A02DC30BC00207047440F3B
:100FD00044EAC104C100E01830BC00EBC25000F08C
:100FE00047B830B50B46014600202022012409E015
:100FF00021FA02F59D4205D303FA02F5491B04FAD2
:1010000002F52844151EA2F10102F1DC30BD202AB0
:1010100004DB203A00FA02F1002070479140C2F14F
:10102000200320FA03F3194390407047202A04DB81
:10103000203A21FA02F00021704721FA02F3D04051
:10104000C2F120029140084319467047202A06DB6E
:10105000CB17203A41FA02F043EAE07306E041FA86
:1010600002F3D040C2F12002914008431946704774
:101070000029A8BF7047401C490008BF20F00100AC
:10108000704710B4B0FA80FC00FA0CF050EA01048A
:1010900004BF10BC704749B1CCF1200421FA04F41C
:1010A00011FA0CF118BF012121430843A3EB0C01F5
:1010B000CB1D4FEA00614FEA102042BF002010BC58
:1010C000704700EBC35010440029A4BF10BC704708
:1010D000401C490008BF20F0010010BC704710B54B
:1010E000141E73F1000408DA401C41F1000192184B
:1010F0005B411A4301D120F0010010BD2DE9F04DF4
:1011000092469B4611B1B1FA81F202E0B0FA80F248
:1011100020329046FFF77BFF04460F4640EA0A0064
:1011200041EA0B0153465A46084313D0114653EA8D
:10113000010019D0C8F140025046FFF777FF05467D
:101140000E46504659464246FFF761FF084305D018
:10115000012004E020463946BDE8F08D002005431B
:1011600046EAE0762C4337430A986305E40AA0EB8D
:1011700008000022FD0A44EA47540A3002D5002044
:101180000146E9E7010510196941DDE90845001943
:101190006941BDE8F04DA2E72DE9F04D81EA030475
:1011A00004F0004B21F0004514464FF0000A23F0F4
:1011B000004150EA050220D054EA01021DD0C5F3D7
:1011C0000A570246C5F31303C1F31300C1F30A56CD
:1011D00040F4801543F48013A7EB0608101BD64695
:1011E00008F2FD3873EB050002D308F1010801E0B5
:1011F00092185B41B8F1000F03DA00200146BDE808
:10120000F08D00204FF48011064684460EE0171B37
:1012100073EB050705D3121B63EB050306434CEA8A
:10122000010C49084FEA300092185B4150EA01076F
:10123000EDD152EA030012D082EA040083EA0501EC
:10124000084305D0101BAB4106D20122002306E063
:1012500000224FF0004302E06FF0010253101AEB3E
:1012600006004CEB085110EB0A0041EB0B01BDE806
:10127000F04DFFF734BFC1F30A52C1F3130140F23E
:10128000FF3341F480119A4202DA00200146704790
:1012900040F233439A42A2F2334202DC5242FFF759
:1012A000C5BEFFF7B4BE000030B5041E71F10004E6
:1012B00004DB4FF00044404264EB0101141E73F163
:1012C000000405DB1C464FF00043524263EB04036D
:1012D000994208BF904230BD064C074D06E0E068D9
:1012E00040F0010394E8070098471034AC42F6D36D
:1012F000FEF74EFFF0DB000810DC000810B50146D9
:10130000806B026C12F0500F05D0806BC26CBDE890
:10131000104008461047016C41F4007101640168F7
:101320008A6812F0405F17D18269AAB9CA6A12F4BA
:10133000700F02D08A6852050ED44A6822F020024B
:101340004A60016C21F480710164016CC90403D40A
:10135000016C41F00101016400F07AFA10BD10B592
:10136000806B40210164416C41F00401416400F054
:1013700071FA10BD10B5806B00F06BFA10BD000063
:10138000454910B54A6822F440324A604A684368C9
:101390001A434A6001684A6822F480724A60016810
:1013A0004A68036942EA03224A6001684A6822F0F7
:1013B00040724A6001684A6883681A434A6001685B
:1013C0008A6822F400628A6001688A68C3681A43E6
:1013D0008A60816A6FF07062D14201688A6822F087
:1013E00070628A6001688A680CD0836A1A438A60D6
:1013F00001688A6822F040528A6001688A68C36A7C
:101400001A4301E022F040528A6001688A6822F0A3
:1014100002028A6001688A68836942EA43028A603C
:10142000016A002901684A680FD042F400624A60EC
:1014300001684A6822F460424A6001684A68174CB1
:10144000436A04EB43331A4301E022F400624A602A
:101450000168CA6A22F47002CA620168CA6A838B90
:101460000F4C04EB03531A43CA6201688A6822F4E2
:1014700000728A6001688A68036B42EA43228A60CC
:1014800001688A6822F480628A6001688A6840691B
:1014900042EA8020886010BD0023014000E0FFFF89
:1014A0000000F0FFFEE70000014800F0C7BA0000AE
:1014B000B886012001681823CAB2103AB2FBF3F2D1
:1014C000054B6FF30901032A9B5CC36500D9091D15
:1014D0008165084670470000D053000810B50146EA
:1014E00000208B698A6A4FF0C07453B1B3F5005F76
:1014F00015D072B1012A0CD0022A0AD0032A09D1D0
:1015000004E01AB1012A06D0022A03D1C96AC9012E
:1015100000D5012010BDC96AA142FAD010BD002A31
:10152000F7D0012AF2D0022AF3D0032AF3D010BD5B
:1015300030B50468256825F480252560046863605B
:101540008368402B036803D099600068C26030BD97
:101550009A600068C16030BD7047000010B5044655
:10156000042001F003F80A484FF47A7114FB01F1EA
:101570000122446002804FF0E020026942F0020242
:1015800002614161016941F00101016110BD00008A
:10159000740000202DED0E8B86B000254FF4806A7C
:1015A00001232A4651466846FFF738FADFF8CC8017
:1015B0009FED33DB9FED34EB9FED35CB364E9FED4A
:1015C000378A4FF400790024B0EE4D9AF0EE6D9A10
:1015D000B0EE4EBAF0EE6EBAB0EE4CAAF0EE6CAAD7
:1015E00058F82470380CFFF7C0FC53EC192BFFF7A8
:1015F0004AFC53EC1B2BFFF746FC53EC1A2BFFF76E
:101600003CFCFFF7D2FC46F825006D1CA8B206EBA7
:101610008001401C85B281ED008AB8B2FFF7A5FCBD
:1016200053EC192BFFF72FFC53EC1B2BFFF72BFC74
:1016300053EC1A2BFFF721FCFFF7B7FC46F8250007
:101640006D1CA8B206EB8001401C641CA4B281EDA5
:10165000008A85B24C45C3D300250F496846FFF781
:10166000BFF952460E490C48FEF70AFE0C4801F03D
:1016700081FB4FF4FA7003F017F9A4E7707E0120A4
:1016800000000000000AAA40000000000000303FF7
:101690000000000000009940704E01200000000092
:1016A000706E01200E4D4FF47A74012240212846BD
:1016B00000F012FC01228021284600F00DFC20469B
:1016C00003F0F2F800224021284600F005FC002239
:1016D0008021284600F000FC204603F0E5F8E4E70E
:1016E000000002401CB500210420CDE900010B469A
:1016F000802202A1024803F089FC1CBD464654002A
:101700009515000878B50024009490F83C20012A33
:1017100019D0012280F83C200A6807230568092AAD
:1017200013D9EE680A3A02EB420293409E43EE6000
:101730000B788A680A3B03EB43039A400368DD6831
:101740002A43DA6010E0022078BD2E6902EB4202E3
:1017500093409E432E610B788A6803EB43039A40C3
:1017600003681D692A431A614A681F23072A13D296
:1017700005686E6B521E02EB820293409E436E63BD
:101780000B790A885B1E92B203EB83039A400368CD
:101790005D6B2A435A6327E005680D2A12D22E6B2F
:1017A000D21F02EB820293409E432E630B790A887C
:1017B000DB1F92B203EB83039A4003681D6B2A433D
:1017C0001A6311E0EE6A0D3A02EB820293409E43E7
:1017D000EE620B790A880D3B92B203EB83039A40C9
:1017E0000368DD6A2A43DA62164B0568144A9D4293
:1017F00006D10D68122D03D1556845F4800555605A
:1018000005689D4218D10B68102B01D0112B13D104
:10181000536843F400035360096810290CD10A4946
:101820000A4A0968B1FBF2F101EB8101490000E0CD
:10183000491E00910029FBD180F83C40002078BD72
:1018400000230140002001408800002040420F009A
:1018500070477047704770B504004FF0000503D023
:10186000206C002610B107E0012070BD666484F88A
:101870003C60204600F01AF8206CC00610D4206CA2
:1018800020F4885040F0020020642046FFF778FDE5
:101890006664206C20F0020040F00100206400E04B
:1018A000012584F83C60284670BD000070B50646EE
:1018B0000068194986B088422CD118480025016873
:1018C00041F4807101600068694600F48070059001
:1018D000012000900320CDE90105114800F024FA11
:1018E000114C1048C4E900050015A560C4E9035077
:1018F000400060618000A0614011C4E907052046F6
:10190000656200F06BF918B17A2108A001F023FE9E
:10191000B463A66306B070BD0020014044380240A5
:101920000000024010640240B88601202E2E2F5382
:1019300072632F6164632E6300000000F8B50E46E9
:1019400000210446009190F83C00012807D00120B6
:1019500084F83C0020688368DB0702D011E0022095
:10196000F8BD836843F0010383602D482D4B006868
:10197000B0FBF3F000EB400000E0401E00900028B8
:10198000FBD120688368DB0748D0236C40F20165F7
:10199000AB4343F4807323644068400505D5206C55
:1019A00020F4005040F480502064206CC00404D522
:1019B000606C20F00600606400E0616484F83C1014
:1019C000A16B1A48184DC863A16B19480864A16B34
:1019D0001848C86421686FF02200086020684168D8
:1019E00041F0806141602068816841F480718160CC
:1019F0002168134632464C31A06B00F059F96868F3
:101A0000C006206802D00C49884207D1816811F0D5
:101A1000405F03D1816841F0804181600020F8BDC2
:101A20008800002040420F0000230140FD12000802
:101A3000751300085F130008002001402DE9F843EA
:101A400004464FF00009CDF8009063484FF416515A
:101A5000A56D0068B0FBF1F72E6894F85C100820C3
:101A600000FA01F131420FD021680A6852070BD504
:101A70000A6822F004020A6094F85C108840A860AA
:101A8000606D40F00100606594F85C104FF0010853
:101A900008FA01F0304208D021684969090604D5E6
:101AA000A860606D40F00200606594F85C1004204E
:101AB0008840304208D021680968890704D5A860A9
:101AC000606D40F00400606594F85C101020884060
:101AD000304218D021680968090714D5A860206829
:101AE0000168490304D50068000308D5A16C07E02C
:101AF0000168C90503D4016821F008010160216C67
:101B000009B12046884794F85C1020208840304274
:101B100031D021680968C9062DD5A86094F8350030
:101B200005282068016806D0490347D500680003EE
:101B30001DD4616C1CE021F0160101602068416930
:101B400021F080014161206C08B9A06C20B12068AF
:101B5000016821F00801016094F85C103F20884082
:101B6000A86084F8349084F83580216D1FE0E16B23
:101B700009B120468847606D00282BD0606DC007F2
:101B800014D0052084F835002068016821F0010197
:101B900001600098401C0090B84203D8206800689B
:101BA000C007F6D184F8349084F83580E16C0029C0
:101BB00010D001B02046BDE8F04308470168C905D0
:101BC000D5D4016821F01001016084F8349084F8C4
:101BD0003580CCE7BDE8F883880000202DE9F0418E
:101BE000044600F07FF906465CB1002584F83450C5
:101BF000022084F835002068016821F001010160AD
:101C00000DE00120BDE8F08100F06CF9801B052893
:101C100005D920206065032084F83500F2E72068AC
:101C20000068C007F0D12268116820480140D4E95B
:101C300001031843D4E90336334318436369184357
:101C4000A3691843E3691843236A18430843616A88
:101C5000042903D1D4E90B13194308431060206809
:101C60004069666A20F0070130460E4301270428C8
:101C70000CD1A06A0643E06A40B12046FFF72EFC73
:101C800020B14020606584F83570BAE7206846616D
:101C90002046FFF70FFC94F85C203F2191408160C3
:101CA000656584F835700020ACE700003F8010F0D7
:101CB0002DE9F0410446866D90F834000025012896
:101CC0000DD0012084F8340094F835700020012FE5
:101CD00007D084F8340002252846BDE8F0810220B0
:101CE000FBE7022784F8357060652046FFF720FC8B
:101CF00094F85C103F208840B0602068016841F093
:101D0000160101602068416941F080014161206C49
:101D100020B12068016841F0080101602068016875
:101D200041F001010160D7E72DE9F84FDFF87CB100
:101D300000224FF001084FF0030A4FF00F090BF19A
:101D4000040E00BF0B6808FA02F42340A3426ED1D0
:101D50004D68022D01D0122D0ED1D50800EB850C57
:101D6000DCF820505607F70E09FA07F6B5430E695E
:101D7000BE402E43CCF82060066855000F790AFA61
:101D800005FC07F0030726EA0C06AF40374307605F
:101D90004E68012E05D0022E03D0112E01D0122E36
:101DA0000ED18668CF6826EA0C06AF4037438760BD
:101DB0004668A6430C79C4F300149440344344604D
:101DC000C6688C6826EA0C06AC403443C4604C6894
:101DD000E40065D5364C256845F4804525602468C7
:101DE00022F0030504F480440094324C2E19D6F8F6
:101DF000084895072F0F09FA07F5AC432E4DA84266
:101E000001D1002524E02D4DA84201D101251FE07C
:101E10002B4DA84201D102251AE02A4DA84201D13A
:101E2000032515E0284DA84202D1042510E037E033
:101E3000264DA84201D105250AE0254DA84201D131
:101E4000062505E0234DA84201D1072500E008251D
:101E5000BD402543C6F80858DBF800405D464E6893
:101E60009C43F60300D51C432C60DEF80040754609
:101E70004E689C43B60300D51C432C600B4D0835BF
:101E80002C684E689C43F60200D51C432C60074D1D
:101E90000C352C684E689C43B60200D51C432C6060
:101EA000521C102AFFF44EAFBDE8F88F003C0140F1
:101EB000443802400030014000000240000402406B
:101EC00000080240000C02400010024000140240D2
:101ED00000180240001C02400AB1816170470904E9
:101EE000FBE7000001488068704700007C0000208C
:101EF0000248816802781144816070477C000020AC
:101F00000B4810B5016841F400710160016841F4AB
:101F100080610160016841F480710160032000F07C
:101F200097F8002000F006F800F024F8002010BD1B
:101F3000003C024070B50D4D04464FF47A7128788C
:101F4000B1FBF0F00A490968B1FBF0F000F01AFBB0
:101F500048B9102C07D200222146501E00F058F834
:101F600000206C6070BD012070BD00007C0000206E
:101F7000880000201F4808B5016841F480410160D5
:101F8000006800F4804000901A48001F016841F08A
:101F900080510160006800F080500090032000F044
:101FA00057F8002211466FF00B0000F031F80022C4
:101FB00011466FF00A0000F02BF8002211466FF076
:101FC000090000F025F800221146501F00F020F80B
:101FD00000221146101F00F01BF800221146901E2F
:101FE00000F016F80022BDE808401146501E00F02F
:101FF0000FB800004438024000F01F020121914058
:102000004009800000F1E020C0F800117047000096
:10201000F0B40E4B1B680C46C3F30223C3F1070553
:10202000042D00D90425191D072901D2002300E041
:10203000DB1E012606FA05F1491E214099409E400B
:10204000761E16403143F0BC00F084BE0CED00E07B
:10205000064900F0070208684FF6FF03184040EAFF
:102060000220034A10430860704700000CED00E0B6
:102070000000FA052DE9F0470E46050065D0DFF8AF
:102080001481D8F80000F7B200F00F00B04207D278
:1020900088F80070D8F8000000F00F00B04254D16A
:1020A00028683D4C810712D5400703D5206840F4CD
:1020B000E05020602878000703D5206840F4604095
:1020C00020602068A96820F0F0000843206028788C
:1020D000C0072DD0304968680839012812D002287D
:1020E00013D0032811D00968890700292DDA216847
:1020F00021F0030101432160FFF7F4FE814641F224
:10210000883A0EE009688903EFE709688901ECE77E
:10211000FFF7E8FEA0EB0901514502D90320BDE815
:10212000F0872068696800F00C00B0EB810FEFD1F8
:10213000D8F80010404601F00F01B14207D90770EE
:10214000006800F00F00B04201D00120E7E72878D6
:10215000400705D52068E96820F4E0500843206076
:102160002878000706D52068296920F4604040EAF5
:10217000C100206000F03CF82168084AC1F3031157
:10218000515CC840064908600020FFF7D3FE0020DC
:10219000C5E70000003C024008380240D853000860
:1021A0008800002001480068704700008800002077
:1021B0000448054900680968044AC1F38221515C5A
:1021C000C84070478800002008380240E8530008E3
:1021D0000448054900680968044AC1F34231515C6A
:1021E000C84070478800002008380240E8530008C3
:1021F000154810B5006810F00C02144813D04110B7
:10220000042A0FD0082A0ED10F4C241F22682368FD
:1022100002F03F025B0207D52068C0F38810A0FBE4
:10222000010106E0084610BD2168C1F38811A1FB39
:1022300000010023FEF73DFD2168C1F30141491C67
:102240004900B0FBF1F010BD083802400024F40052
:102250002DE9F84F050076D02878DFF8F8B2BE4CAB
:10226000C00749D0DBF800105846C1F381010129AD
:1022700008D00068C0F3810002280AD1201D006840
:10228000400206D52068800336D568680028E2D071
:1022900032E06868B0F5803F10D0B0F5A02F20681C
:1022A00010D020F480302060206820F4802020604E
:1022B0006868A0B1FFF716FE06460CE0206840F4FF
:1022C0008030F4E740F480202060F7E7FFF70AFE53
:1022D000801B642873D820688003F7D50CE0FFF7D3
:1022E00001FE064605E000BFFFF7FCFD801B6428E9
:1022F000F0D820688003F7D42878DFF86082800760
:102300004FF000093ED5DBF80010584611F00C0FD5
:1023100009D00068C0F3810002280BD18D48001F4E
:102320000068400206D42068800715D5E8680128B7
:1023300009D111E0E868B8B10120C8F80000FFF742
:10234000D1FD064605E002E1FFF7CCFD801B022827
:10235000C0D820688007F7D52068296920F0F800E8
:1023600040EAC10020600DE0C8F80090FFF7BAFD18
:10237000064604E0FFF7B6FD801B02281FD8206840
:102380008007F7D42878000722D5724E744869690F
:102390006C3671B101210160FFF7A4FD074604E02E
:1023A000FFF7A0FDC01B022809D830688007F7D5C9
:1023B0000EE0C0F80090FFF795FD074605E083E0CA
:1023C000FFF790FDC01B02287ED830688007F7D445
:1023D0002878400768D5DFF87CA100270AF1380A81
:1023E000DAF80000C0000BD4DAF8001041F0805198
:1023F000CAF80010DAF80000012700F080500090C1
:10240000584E3068C00510D4306840F48070306099
:10241000FFF768FD009005E0FFF764FD0099401AA2
:10242000022851D83068C005F6D54A4EA8686836EB
:1024300001280FD00528306810D020F0010030604E
:10244000306820F004003060A868B8B1FFF74AFD9A
:1024500000900FE0306840F00100F4E740F0040025
:102460003060F7E7FFF73EFD0099411A41F28830EE
:10247000814264D830688007F4D50EE0FFF732FD62
:10248000009007E0FFF72EFD0099411A41F28830D5
:10249000814254D830688007F4D42FB1DAF80010A4
:1024A00021F08051CAF80010A869C0B3DBF8001011
:1024B000C1F3810102294AD00228484607D0C8F852
:1024C0006000FFF70FFD00E039E005463AE04746BF
:1024D000C8F86000FFF706FD064604E0FFF702FDBE
:1024E000801B02282BD820688001F7D4D5E907018A
:1024F0000843A96A1C4A490802EB01416A6A41EA99
:102500008211084395F82C1040EA01611148001F20
:10251000016001203866FFF7E5FC054605E014E0A0
:10252000FFF7E0FC401B022809D820688001F7D59E
:102530000BE000BFFFF7D6FC401B022802D90320A6
:10254000BDE8F88F20688001F4D40020F8E701206E
:10255000F6E7000008380240003802400000474219
:10256000800E4742007000400000FFFF4FF0E02166
:102570000428086903D020F004000861704740F087
:102580000400FAE710B5401EB0F1807F01D30120AE
:1025900010BD4FF0E02460610F21601700F0DAFBFE
:1025A0000020A06107202061002010BD10B590F828
:1025B0003820012A25D0012280F83820CA688C688A
:1025C00022F4407222434C6822F4806222430C6859
:1025D00022F4006222430C6922F4805222434C69A7
:1025E00022F4005222438C6922F48042224322F4D6
:1025F0000041026800232143516480F838300020F4
:1026000010BD022010BD30B590F83820012A20D02E
:10261000012280F83820022380F8393003685C6892
:1026200024F070045C6003685C680D682C435C6097
:1026300003689C6824F080049C6003689C68496877
:102640000C439C6080F83920002180F8381008463F
:1026500030BD022030BD10B5040003D094F839001D
:1026600010B107E0012010BD002084F8380020469A
:1026700000F00CF8022084F83900211D206800F0D9
:1026800095FC012084F83900002010BD08B50068D1
:102690000649884208D10648016841F001010160FD
:1026A000006800F00100009008BD0000000001403B
:1026B0004438024070B5044690F83800012817D01D
:1026C000012584F83850022084F839002068826897
:1026D00022F0770222F47F4282600868502837D0C7
:1026E0000DDC202859D005DC88B3102841D151E0F9
:1026F000022070BD302853D040283AD13FE06028F6
:102700002ED070280BD0B0F5805F03D0B0F5005FFD
:102710002FD110E02068816821F0070115E0CB6817
:10272000D1E90121206800F0A1FC2168886840F00F
:10273000770088601DE0CB68D1E90121206800F0B6
:1027400095FC2068816841F48041816011E01EE0C1
:10275000CA684968206800F051FD5021206806E0F1
:10276000CA684968206800F05AFD6021206800F0BE
:1027700087FC84F83950002084F8380070BDCA689E
:102780004968206800F03AFD40212068EFE7002109
:102790002068ECE710212068E9E720212068E6E7BF
:1027A00030212068E3E7000000B50068094985B0E2
:1027B00088420CD1801500900220019000200290E8
:1027C00003900120049069460348FFF7ADFA05B075
:1027D00000BD0000000001400000024070B504464A
:1027E00090F838000D4601280DD0012684F8386095
:1027F000022084F8390042B1042A18D0082A2AD0CD
:102800000C2A4DD139E0022070BD206800F040FC58
:102810002068816941F0080181612068816921F0A7
:1028200004018161206881692A69114311E02068EF
:1028300000F05AFC2068816941F4006181612068E0
:10284000816921F480618161206881692A6941EA96
:102850000221816124E0206800F078FC2068C169D1
:1028600041F00801C1612068C16921F00401C16122
:102870002068C1692A69114311E0206800F096FCC4
:102880002068C16941F40061C1612068C16921F417
:102890008061C1612068C1692A6941EA0221C16180
:1028A00084F83960002084F8380070BD10B5040049
:1028B00003D094F8390010B107E0012010BD0020CA
:1028C00084F83800204600F00CF8022084F8390023
:1028D000211D206800F06AFB012084F839000020E7
:1028E00010BD704770B5040004D094F8390000257D
:1028F00010B106E0012070BD84F83850204600F089
:1029000023F8242084F839002068C16821F400519C
:10291000C160204600F096FC2068016921F49041D6
:1029200001612068416921F02A0141612068C16884
:1029300041F40051C160E563202084F8390084F837
:102940003A00002070BD000070B5154E01680222EB
:10295000012303240725134886B0B1420AD1124946
:102960000E6846F010060E60096801F0100105912E
:1029700061020DE00D4EB1420FD10B49091F0E68E7
:1029800046F400360E60096801F4003105910C210F
:102990008DE83E006946FFF7C7F906B070BD00003C
:1029A0000010014000000240443802400044004052
:1029B0002DE9F843044690F839001F4616460D46A7
:1029C000202850D1A5B19EB194F8380001284AD0F2
:1029D000012084F838004FF00008C4F83C80212022
:1029E00084F83900FFF77EFAA6848146E68426E063
:1029F0000120BDE8F883E08C401EE084A0684B46CF
:102A0000B0F5805F4FF000024FF080012046009744
:102A100003D000F06DFDE8B90DE000F069FDC8B924
:102A200028882168C0F308004860206908B16D1C3F
:102A300005E0AD1C03E0216815F8010B4860E08C4F
:102A40000028D8D14B46002240212046009700F0B4
:102A50004FFD08B10320CCE7202084F8390084F82A
:102A600038800020C5E70220C3E7FEE71CB500213F
:102A70000320CDE900010B46802202A1024802F0AA
:102A8000C5FA1CBD4C454400A51600087FB5154885
:102A90001349012401604FF4803100250461C0E92D
:102AA00001150562C5620221C560C0E906410463E3
:102AB0004461FEF7D0FE18B149210BA000F04BFD98
:102AC00003200095CDE9014069460648FEF71AFE4D
:102AD000002803D0532104A000F03DFD7FBD00007D
:102AE00000200140708601202E2E2F5372632F612B
:102AF00064632E6300000000094808B5016841F4D2
:102B0000800101600068002200F4800000901146FE
:102B10003820FFF77DFABDE808403820FFF76CBA8F
:102B2000303802402DE9F0412A4886B0002501687E
:102B300041F010010160016801F010010591016888
:102B400041F080010160016801F080010591016898
:102B500041F004010160016801F004010591016880
:102B600041F00101016000681B4E00F001004FF6CA
:102B7000FF740590002221463046FFF7ADF9174F4C
:102B80000022FF213846FFF7A7F9DFF85480002222
:102B9000C0214046FFF7A0F9009401246946304661
:102BA0000194CDE90245FFF7BFF8FF20CDE900040D
:102BB00069463846CDE90245FFF7B6F8C020CDE9B1
:102BC000000469464046CDE90245FFF7ADF806B07E
:102BD000BDE8F08130380240001002400008024099
:102BE0000000024010B52F4894B02D49016044F216
:102BF0009F110024C0E90114C821C0E903144461F5
:102C0000FFF729FD18B1412127A000F0A4FC4FF4E3
:102C100080500E900EA92348FFF74CFD18B14721B4
:102C200021A000F098FC1F48FFF740FE18B14C218E
:102C30001DA000F090FC129412A91A481394FFF7FB
:102C4000E2FC18B1532118A000F085FC6020009030
:102C50000C20CDE9010403940494059400226946F4
:102C600010480694FFF7BAFD18B15F210EA000F0DE
:102C700072FC0794089409944FF400500A94CDE92B
:102C80000B4007A907480D94FFF790FC18B16B2182
:102C900005A000F060FC0348FFF786FD14B010BDEE
:102CA00000000140188701202E2E2F5372632F74CD
:102CB000696D2E63000000000D4810B50B490160DE
:102CC0004FF4E1314160002181600C22C160C0E914
:102CD00004128161C161FFF705FE002805D0BDE83F
:102CE0001040472103A000F036BC10BD0010014089
:102CF000548701202E2E2F5372632F7573617274C7
:102D00002E6300000D4810B50B4901604FF4E1310E
:102D10004160002181600C22C160C0E90412816120
:102D2000C161FFF7DFFD002805D0BDE810405A2142
:102D300003A000F010BC10BD0044004094870120A7
:102D40002E2E2F5372632F75736172742E630000E1
:102D5000FEE770470907090E002806DA00F00F00A9
:102D600000F1E02080F8141D704700F1E02080F8A9
:102D7000001470472DE9F0413D4B00214FF4806E67
:102D800000EB810223F8311092ED000A03EBC1023F
:102D9000491C89B282ED010A7145F1D3002000225D
:102DA000A0F2FF314C4215E003EBC20191ED010AA4
:102DB000D1ED030AB4EEE00AF1EE10FA08DD10EEF0
:102DC000106A8F680D680F60C1ED010AC1E90256F3
:102DD000521C92B2A242E7DB401C80B27045DED3A7
:102DE000244D0020C0F5806105EBC00403EBC10158
:102DF000401CD1E90021C4E9002180B20F28F1D3A1
:102E00000021084601E000200EE005EBC00235F885
:102E100030301489A34205D992E8D800C2E90234BF
:102E2000C2E90067401C80B2C1F10E028242ECDCB4
:102E3000491C89B20F29E6D30FA000F08DFB0024B6
:102E400005EBC4004068FEF79DF841EC100B35F827
:102E5000341053EC102B0FA000F07EFB641CA4B2C6
:102E60000F2CEDD3BDE8F04103A000F075BB0000CE
:102E7000C02D0120F04D01205F5F5F5F5F5F5F5FEE
:102E80005F5F5F5F5F5F5F5F5F5F5F5F5F5F5F5F52
:102E90005F00000025643A252E32660D0A0000000E
:102EA00010B502F0DFF8012801D001F04DFEBDE8B9
:102EB0001040FFF71DB8000030B5254893B000253D
:102EC000016841F080510160006800F0805011906D
:102ED0002048016841F4804101600068022400F448
:102EE0008040119001200090000401908001CDE904
:102EF0000640082008904FF4A870CDE9090404208A
:102F00000B906846FFF7A4F900B1FEE70CA90F206B
:102F100081E831004FF4A0500F904FF48050109092
:102F200005210CA8FFF7A6F800B1FEE7FFF73AF974
:102F30004FF47A71B0FBF1F0FFF724FB0420FFF7A8
:102F400015FB00221146501EFFF762F813B030BD8A
:102F500040380240007000401048016841F47001A0
:102F600001600F48016841F0010101600C4A002135
:102F70000832116002680B4B1A400260031D0A4AB6
:102F80001A60026822F48022026005480C30016059
:102F900002495806803908607047000088ED00E05B
:102FA00000380240FFFFF6FE10300024F0B5026842
:102FB000234B244D244E254F254C4FF0804C9842F6
:102FC00009D0604507D0A84205D0B04203D0B8422E
:102FD00001D0A04204D122F0700E4A6842EA0E02EB
:102FE00098421BD0604519D0A84217D0B04215D0E6
:102FF000B84213D0A04211D0164DA8420ED0164DA3
:10300000A8420BD0154DA84208D0154DA84205D0B6
:10301000144DA84202D0144DA84203D122F44075A9
:10302000CA682A4302608A68C2620A688262984259
:1030300001D0A04201D10969016301214161F0BDC4
:10304000000001400004004000080040000C004067
:10305000000401400040014000440140004801409C
:1030600000180040001C00400020004010B584689B
:1030700042EA032224F47F440A432243826010BDC3
:10308000826822F070020A4342F0070181607047B3
:1030900030B5026A22F001020262026A4368846962
:1030A0000D6824F07304254322F002048A68224349
:1030B0000B4CA04202D00B4CA0420BD122F00804D2
:1030C000CA6823F4407322434C6922F004021C4373
:1030D0008B6923434360856149684163026230BD67
:1030E000000001400004014030B5026A22F01002E5
:1030F0000262026A436884690D6824F4E64444EA83
:1031000005248D6822F0200242EA05120D4DA842E6
:1031100002D00D4DA8420ED1CD6822F0800242EAC5
:1031200005124D6923F4406343EA85038D6922F05B
:10313000400243EA85034360846149688163026217
:1031400030BD0000000001400004014030B5026ABB
:1031500022F480720262036A4268C46923F4007335
:1031600024F073050C682C438D6843EA05230D4D4C
:10317000A84202D00C4DA8420ED1CD6823F40063C2
:1031800043EA05234D6922F4405242EA05128D6953
:1031900023F4806342EA05124260C4614968C16356
:1031A000036230BD000001400004014030B5026AF6
:1031B00022F480520262046A4268C3690D6823F4F3
:1031C000E64343EA05238D6824F4005444EA0534B9
:1031D000084DA84202D0084DA84204D14D6922F4FE
:1031E000804242EA85124260C36149680164046218
:1031F00030BD0000000001400004014010B5036A2A
:10320000046A24F001040462846924F0F00444EAAE
:10321000021423F00A020A438461026210BD10B551
:10322000036A23F0100303628369046A23F4704382
:1032300043EA023224F0A00343EA011182610162F1
:1032400010BD00002DE9F04104460068016921F439
:103250004052E168114301612168C86849F20C627B
:1032600090432369A268E5691A4363692B431A43B3
:103270000243CA602168486920F44072A069104383
:103280004861E1696425B1F5004F9748974A216884
:103290004FF032083FD0914201D081427CD1FEF7FD
:1032A00097FF00EBC00101EB001061688900B0FBE3
:1032B000F1F6FEF78DFF00EBC00101EB0010616835
:1032C0008900B0FBF1F0B0FBF5F06FF01801484356
:1032D00006EB800108EB0110B0FBF5F000F0F00602
:1032E000FEF776FF00EBC00101EB0010616889007A
:1032F000B0FBF1F0B0FBF5F006EB0016FEF768FF4F
:1033000000EBC00101EB001061688900B0FBF1F730
:10331000FEF75EFFD2E0914201D081423DD1FEF73F
:1033200057FF00EBC00101EB001061684900B0FBE2
:10333000F1F0B0FBF5F00601FEF74AFF00EBC0012B
:1033400001EB001061684900B0FBF1F7FEF740FFA8
:1033500000EBC00101EB001061684900B0FBF1F027
:10336000B0FBF5F06FF01801484307EB800108EB64
:10337000C100B0FBF5F000F0F80006EB4006FEF7E8
:1033800027FF00EBC00101EB001061684900B0FBB2
:10339000F1F7FEF71DFF3CE055E0FEF709FF00EBFB
:1033A000C00101EB001061684900B0FBF1F0B0FB17
:1033B000F5F00601FEF7FCFE00EBC00101EB00108A
:1033C00061684900B0FBF1F7FEF7F2FE00EBC001C7
:1033D00001EB001061684900B0FBF1F0B0FBF5F0C3
:1033E0006FF01801484307EB800108EBC100B0FB08
:1033F000F5F000F0F80006EB4006FEF7D9FE00EB12
:10340000C00101EB001061684900B0FBF1F7FEF765
:10341000CFFE00EBC00101EB001061684900B0FB7A
:10342000F1F0B0FBF5F06FF01801484307EB8001B5
:1034300008EBC100B0FBF5F000F007002168304454
:103440008860BDE8F081FEF7B3FE00EBC00101EB40
:10345000001061688900B0FBF1F6FEF7A9FE00EBF1
:10346000C00101EB001061688900B0FBF1F0B0FB16
:10347000F5F06FF01801484306EB800108EB0110EE
:10348000B0FBF5F000F0F006FEF792FE00EBC00195
:1034900001EB001061688900B0FBF1F0B0FBF5F0C2
:1034A00006EB0016FEF784FE00EBC00101EB0010F6
:1034B00061688900B0FBF1F7FEF77AFE00EBC0010E
:1034C00001EB001061688900B0FBF1F0B0FBF5F092
:1034D0006FF01801484307EB800108EB0110B0FBC7
:1034E000F5F000F00F00A9E70014014000100140C2
:1034F0002DE9F041984617460E460446069D1DE00C
:10350000681C1BD02DB1FEF7EDFCA0EB0800A84213
:1035100014D92068C16821F4D071C1602068416964
:1035200021F001014161202084F8390084F83A003B
:10353000002084F838000320BDE8F081206800688E
:1035400036EA000004D00020B842D9D00020F3E7CA
:103550000120F9E7FEE7FEE70FB4054B10B503A91C
:10356000044A029800F0CAF810BC5DF814FB000091
:103570002D3E00088C00002002E008C8121F08C180
:10358000002AFAD170477047002001E001C1121FE4
:10359000002AFBD1704700002DE9FF5FDDE9022022
:1035A000010DDDF838B0024318D044F61050A1F2F6
:1035B000FF3141430D140F98012820D0A5EB0B00DB
:1035C000401C5FEA000A4FF00004474EDFF81C91F0
:1035D000A046504616D5CAF1000728E00F980124EE
:1035E00043A2012808D0002100980F9BC0E90021C8
:1035F000C0E90243BDE8FF9F6FEA0B01F4E7CBF19E
:103600000000DEE7074612E0F80707D022463346FF
:1036100040464946FDF737FC8046894622463346F8
:1036200010461946FDF72FFC04460E467F10002F6A
:10363000EAD1DDE90201BAF1000F42464B4602DA57
:10364000FDF721FC01E0FDF7A7FD04460E46002230
:10365000284BFDF729FE03D84FF0FF30014607E065
:103660000022254B20463146FDF766FBFDF703FEA1
:10367000102409E0002C0ADB0A220023FDF719FBC5
:10368000019B30321A55641E50EA0102F2D1641CCB
:10369000019AC4F1110314440F9A012A03D00122A4
:1036A00008430DD10AE0084304D000204FF0110B6D
:1036B0000F9080E7A3EB0B056D1E0DE05B4504DD6D
:1036C0004FF0000205F1010504E003DA4FF00002BB
:1036D000A5F10105002AECD000980F99C0E902314C
:1036E000C0E9004586E70000000024400000F03FEC
:1036F000300000000000F0430000E03F2DE9FF4FE4
:1037000095B09B468946064600250FE2252877D1CD
:1037100000242746F84A0121059400E0044316F8E6
:10372000013F203B01FA03F01042F7D130782A28FC
:1037300011D06FF02F033078A0F13002092A16D88B
:10374000059A44F0020402EB820203EB42021044A9
:10375000761C0590EFE759F8042B0592002A03DA4E
:10376000504244F40054059044F00204761C307832
:103770002E2816D116F8010F44F004042A280DD083
:103780006FF02F023078A0F13003092B09D807EB36
:10379000870302EB4303C718761CF3E759F8047B51
:1037A000761C30786C280FD006DC4C2817D068289F
:1037B0000DD06A2814D104E0742810D07A280FD1D3
:1037C0000DE044F400140AE044F4801401E044F4F1
:1037D00040147278824202D104F58014761C761C63
:1037E000307866280BD013DC582877D009DC002805
:1037F00075D04528F6D04628F4D047281AD19DE147
:1038000018E0632835D0642879D0652812D195E175
:10381000702873D008DC6728F1D069286FD06E2833
:103820000DD06F2806D1B5E073282CD0752875D03F
:10383000782874D05A46179990476D1C75E1C4F3E7
:103840000250022809D003280DD0D9F8001004280E
:103850000DD00D6009F1040967E1D9F80010EA17ED
:10386000C1E90052F6E7D9F800100D80F2E70D70BB
:10387000F0E719F8041B8DF8001000208DF8010006
:10388000EA46012003E059F804AB4FF0FF3061072E
:103890004FF0000102D40DE008F101018846B94261
:1038A0000FDA8045F8DB1AF808100029F4D108E097
:1038B00008F1010188468142FADB1AF80810002954
:1038C000F6D105985B46A0EB080721463846179AC3
:1038D00000F094FA284400EB080507E04DE029E1E8
:1038E0000DE01AF8010B5A4617999047B8F10108F4
:1038F000F7D25B4621463846179A13E142E00A2286
:103900000092C4F302524FF0000A022A08D059F87C
:1039100004CB032A4FEAEC710AD00DE029E02AE03B
:1039200009F1070121F00702F2E802C1914609E01E
:103930000FFA8CFC4FEAEC71042A03D14FFA8CFC8D
:103940004FEAEC71002907DA0A460021DCF1000C8D
:1039500061EB02012D2202E0220504D52B228DF815
:103960000420012203E0E20701D02022F7E790467D
:1039700059E00A2102E010220DE010214FF0000A68
:1039800000910BE010224FF0000A44F004040827D5
:10399000009203E008224FF0000A0092C4F30252A2
:1039A000022A05D059F804CB0021032A08D009E0E7
:1039B00009F1070121F00702F2E802C1914605E092
:1039C0001FFA8CFC042A01D10CF0FF0C4FF0000808
:1039D000220728D5702806D0009B83F0100353EAF5
:1039E0000A0305D00EE040228DF80420012208E0F1
:1039F0005CEA010206D030228DF804208DF8050023
:103A000002229046009B83F0080353EA0A030AD17E
:103A10005CEA010201D1620705D530228DF804204D
:103A20004FF001087F1E582804D034A003900EA840
:103A300002900DE036A0F9E753466046009AFDF784
:103A400038F984460398825C0298401E0290027006
:103A50005CEA0100F0D1029806A9081A00F1200AD8
:103A6000600702D524F4803400E00127574502DDC9
:103A7000A7EB0A0000E0002000EB0A010090059887
:103A80004144401A0590E00306D45B462146179A4C
:103A9000059800F0B3F90544002706E001A85A464E
:103AA000C05D179990476D1C7F1C4745F6DBE0030E
:103AB0000CD55B462146179A059800F09FF90544FE
:103AC00004E030205A46179990476D1C0099481E13
:103AD00000900029F5DC08E0029802995A46007827
:103AE000491C0291179990476D1CBAF10001AAF187
:103AF000010AF1DC65E100000928010030313233B0
:103B00003435363738396162636465660000000019
:103B10003031323334353637383941424344454603
:103B20000000000000F058F90544761C30780028A9
:103B30007FF4ECAD19B02846BDE8F08F620700D4E1
:103B4000062709F1070222F0070CFCE80223E146F0
:103B500003F000485FEA080C02D00FF2702C0DE071
:103B60005FEA045C02D50FF2682C07E05FEAC47CD0
:103B700002D00FF2602C01E0AFF2700C4FF0FF3872
:103B800023F00043CDF850C065280CD006DC452852
:103B900009D046281DD047283DD13DE0662818D0E1
:103BA00067287ED138E00021112F01DB112000E0D1
:103BB000781CCDE9000106A90EA8FFF7EDFCDDE9B0
:103BC0000F010E9A03910021009207F1010A04915E
:103BD0004DE04FF000400097CDE9011006A90EA876
:103BE000FFF7DAFCDDE90F0203920E9B1199002228
:103BF000DDF80CA00093049211B9791C00EB010AC6
:103C0000B7EB0A0004D4C0F1FF3007F1010A0490B9
:103C1000AAEB0700019044E0012F00DA0127002100
:103C2000112F01DD112000E03846CDE9000106A981
:103C30000EA8FFF7B1FCDDE90F010E9A03910021F8
:103C400004910092BA4621070CD40399514500DA39
:103C50008A46BAF1010F05DD009AAAF10101515C13
:103C6000302908D0B84202DA10F1040F06DA012137
:103C7000CDE9011015E0AAF10101E9E7002805DC12
:103C8000049901440491AAEB000102E0411C514552
:103C900000DD8A460499401A401C01904FF0004014
:103CA0000290200704D40198504501DBCDF8048030
:103CB00000208DF84F0002980DF14F07B0F1004F32
:103CC00025D02B200E9002984FF0020800280CDA25
:103CD000404202902D200E9007E00A210298FDF745
:103CE00080F93031029007F8011DB8F10001A8F108
:103CF0000108F2DC02980028EFD1791E0E980870B6
:103D0000307800F0200040F0450007F8020D12A8BE
:103D1000C01B00F107081498007800B1012000EBE7
:103D20000A01019801EBE07105984144401A401ED8
:103D30000590E00306D45B462146179A059800F0EB
:103D40005DF805441498007818B15A4617999047C1
:103D50006D1CE00324D55B462146179A059800F0B8
:103D60004DF805441CE00498002807DBDDE9030159
:103D7000884203DD0098405C179901E017993020D4
:103D80005A469047049805F10105401C049001989B
:103D9000401E019004D12E205A46179990476D1C61
:103DA000BAF10001AAF1010ADDDC05E017F8010B08
:103DB0005A46179990476D1CB8F10001A8F1010807
:103DC000F4DC5B462146179A0598ABE62D0000000F
:103DD0002B000000200000002DE9F04104460025E2
:103DE0001E461746880404D405E039462020B04713
:103DF0006D1C641EF9D52846BDE8F0812DE9F0411F
:103E0000044600251E469046C80301D5302700E031
:103E10002027880404D505E041463846B0476D1C8C
:103E2000641EF9D52846BDE8F081000013B54FF6B1
:103E3000FF73012269460248FEF7BAFD00981CBDD7
:103E40005487012010B5FEF75BF8FFF735F8FEF751
:103E500069FEFEF751FEFEF719FEFEF72DFFFEF795
:103E600051FFFEF7BFFE4FF4806207490748FDF798
:103E700065FDA820FDF772FBFEF7F8FDFDF732FCAB
:103E800000F07AFD002010BD707E012070860120B8
:103E90002DE9F041184C0F460546E6682068001DE4
:103EA00000F0EEFB38B9206890F82C100120884013
:103EB000216981432161681C07D137B12168BDE8C0
:103EC000F0410E48091D00F014BC20683544B5428D
:103ED0004560216805D2A06BBDE8F041091D00F0E6
:103EE000F0BB606B091D00F0ECFBA06A854200D2BC
:103EF000A562BDE8F08100000000002084010020E0
:103F00002DE9F041054600F001FC2E4CA068401C54
:103F1000A06020682C4F10B1606940B32DE025608F
:103F2000A068012829D1002606EB860007EB800057
:103F300000F0B9FB761C052EF6D32348643000F060
:103F4000B2FB2148783000F0AEFB1F488C3000F007
:103F5000AAFB1D48A03000F0A6FB1B48B43000F0BF
:103F6000A2FB1948643060631430A06305E0206848
:103F7000E96AC06A884200D82560606A401C6062B5
:103F8000E96A0120226988401043206101EB810029
:103F900007EB8000291D00F0ACFB00F0D7FB606947
:103FA00000280CD02068E96AC06A884207D2074915
:103FB0004FF080500860BFF34F8FBFF36F8FBDE8A5
:103FC000F081000000000020D000002004ED00E09F
:103FD00010B500F09BFB0E4C2068A0B90D4800F016
:103FE00062FB0C48143000F05EFB0A48E0601430BD
:103FF000206100220C210A2000F0BCFD206010B1DD
:1040000005A100F01BFCBDE8104000F09FBB0000C4
:104010003C00002098010020546D72510000000007
:1040200030B4026C0B46002A0BD0C1681144C16049
:104030004468A14201D30168C16030BC1846FCF756
:1040400069BE30BC70472DE9F041856B17460446C8
:104050000026026C82B1C7B1E068FCF75BFEE16844
:10406000206C091AE1602268914202D26168081A44
:10407000E060022F16D017E02068A8B9606801F050
:1040800069F80646002060600EE0A068FCF742FE7A
:10409000216CA0680844A0606168884204D320684D
:1040A000A06001E005B16D1E6D1CA5633046BDE842
:1040B000F08110B50446006B00F05CFB2046BDE8C3
:1040C000104000F057BB000010484FF496314207F3
:1040D00006D0C01D0D4920F00700411AC1F59631E8
:1040E0000B4A00230144C2E900030839103A21F0C9
:1040F000070111604B600B600B1AC0E9001393605D
:104100004FF000405360D06070470000C0010020B5
:104110006C000020144E154CA6F1A0074FF08058FB
:10412000DFF84C9012E000BF00F0F0FAF068C568CC
:10413000281D00F0A5FAA068401EA0606068401E1F
:10414000606000F003FB2846FFF7B3FF60680028BB
:10415000EAD138680128F9D9C9F80080BFF34F8F38
:10416000BFF36F8FF2E70000700100200000002015
:1041700004ED00E02DE9F0479A46DDE90984814627
:104180006FF00303206B03EB82021044089D20F0C4
:104190000706700707D0502080F31188BFF34F8FB8
:1041A000BFF36F8FFEE723180A5C83F834200A5CA4
:1041B00012B1401C0A28F6D3002784F83D70052D63
:1041C00000D30425E562C4E91057201D00F076FAFB
:1041D00004F1180000F072FA2461C5F10500646270
:1041E000A061A76484F84C7052464946304600F0FE
:1041F00031FA2060B8F1000F01D0C8F80040BDE8E6
:10420000F087000030B5114900E011460A6882428B
:10421000FBD34B685C18844203D140681844486063
:10422000084643681C18944209D1084C103C246885
:10423000A24209D052681A4442600A6812680260B9
:10424000814200D0086030BD0460F9E76C000020B6
:1042500070B5002441600B4D0061914206D8D11A1F
:104260008269914206D2011D286907E09A4203D271
:10427000994201D3012403E0011DE86800F021FA0E
:10428000204670BD3C00002010B5044600F03EFA08
:10429000A06B28B15FF0000400F058FA204610BD72
:1042A0000124F9E730B587B02B4D4BE00498002886
:1042B00048DB069C606910B1201D00F0E1F902A8FE
:1042C00000F0B6F8024604980A283BD2DFE800F076
:1042D0000505053A263705053A260598A1690346DE
:1042E00001442046FFF7B4FF00B3616A20468847C7
:1042F000E069012826D1002000900598A1690023DB
:1043000042181946204601F033F878B9502080F35E
:104310001188BFF34F8FBFF36F8FFEE70598A06141
:1043200028B1811813462046FFF792FF0AE050207B
:1043300080F31188BFF34F8FBFF36F8FFEE72046E6
:1043400000F018FA002204A9286800F089FD00286E
:10435000ACD107B030BD00003C0000202DE9FC418D
:104360000F46054600F040FB01A800F061F8044646
:10437000019818B100F074FFBDE8FC81224EAFB186
:1043800030690068A8B30027291B3A46306800F05E
:1043900069FA00F065FF0028EED11C494FF080500B
:1043A0000860BFF34F8FBFF36F8FE5E7A542EBD8EF
:1043B00000F056FFF0682746C068C468201D00F072
:1043C0005FF9E069012810D1A0692B4641193A46EE
:1043D0002046FFF73DFF40B1002003460146009014
:1043E0002A46204600F0C4FF20B1616A2046884773
:1043F000C2E707E0502080F31188BFF34F8FBFF36F
:104400006F8FFEE70127BFE73C00002004ED00E0CE
:104410000648416B096829B1416BC968C968496898
:10442000816270474FF0FF31FAE700000000002082
:1044300070B5054600F024FE064E0446B06884427E
:1044400003D200F009F8012000E000202860204697
:10445000B46070BD3C000020F8B5194D1FE0C06885
:10446000C4680668201D00F00BF9616A2046884781
:10447000E069012813D1A0693044B04206D9246113
:104480006060211DE86800F01CF908E00020034688
:10449000014600903246204600F06AFF38B1E868D5
:1044A00001680029DBD12969C5E90310F8BD502056
:1044B00080F31188BFF34F8FBFF36F8FFEE70000CB
:1044C0003C00002008484068401C4FF0500080F33A
:1044D000118804D0BFF34F8FBFF36F8FFEE7BFF398
:1044E0004F8FBFF36F8FFEE750000020074CE0684E
:1044F000016841B1C0680021D0F80000FFF72EFF2D
:10450000FFF7D0FEF3E701210020F7E73C00002091
:104510002DE9F041044600F0F9F894F9455004F112
:10452000240609E0606A48B1304600F05FFE08B139
:1045300000F0E8F96D1E6DB2002DF3DC4FF0FF3690
:1045400084F8456000F002F900F0E0F894F9445076
:1045500004F1100709E0206948B1384600F046FE32
:1045600008B100F0CFF96D1E6DB2002DF3DC84F8B8
:104570004460BDE8F04100F0E9B800002DE9F041E9
:104580000546002700F030FA314E306808B9FFF7D1
:104590009BFDF06805424BD1C5B3083568070ED0C6
:1045A00005F00700C0F108000544680707D0502057
:1045B00080F31188BFF34F8FBFF36F8FFEE72DB3EA
:1045C0007068854234D82248103001460C6801E0FA
:1045D00020460C466168A94202D221680029F7D121
:1045E00031688C4224D00768216801606068083710
:1045F000411B10290FD96019420708D0502080F3C1
:104600001188BFF34F8FBFF36F8FFEE710E041605B
:104610006560FFF7F7FD61687068401A7060B26806
:10462000904200D2B060F06801430020C4E900016C
:1046300000F016FE780707D0502080F31188BFF3F2
:104640004F8FBFF36F8FFEE73846BDE8F081000063
:104650005C00002010B5031F4FF080741C601B1F0E
:1046600021F001011960191F044B0B6014390A6015
:10467000091F6FF0020244380A6010BDC5440008EB
:10468000D0E9013201699A60D0E901235A604A6891
:10469000824201D182684A60002202610868401E9D
:1046A00008600868704700F108014FF0FF32C0E968
:1046B0000112C160016100210160704700210161A8
:1046C000704730B50B685A1C02D000F1080202E0B6
:1046D000026904E02246546825689D42FAD953686D
:1046E0004B6099608A60516008610168491C0160F3
:1046F00030BD42684A6093688B60936859609160EE
:1047000008610168491C016070470000502080F377
:104710001188BFF34F8FBFF36F8F0A494868401C61
:10472000486001280CD10848006810F0FF0F07D03E
:10473000502080F31188BFF34F8FBFF36F8FFEE7D8
:10474000704700005000002004ED00E00849486870
:1047500028B1401E486001D180F311887047502075
:1047600080F31188BFF34F8FBFF36F8FFEE7000018
:104770005000002070B5002827D0144DA0F1080487
:104780006168E868014207D1502080F31188BFF3C7
:104790004F8FBFF36F8FFEE722683AB1502080F34E
:1047A0001188BFF34F8FBFF36F8FFEE781436160C6
:1047B00000F01AF960686968084468602046FFF7ED
:1047C00021FDBDE8704000F04BBD70BD5C000020D5
:1047D0004FF0E02000210161816102494161072120
:1047E000016170473F90020010B5FBF733FD11499E
:1047F00010280ED300F1E02090F8F0030A789042E0
:1048000007D2502080F31188BFF34F8FBFF36F8F13
:10481000FEE709480068896800F4E060884207D92B
:10482000502080F31188BFF34F8FBFF36F8FFEE7E7
:1048300010BD0000500000200CED00E010B5084B4A
:10484000002200BF53F832401CB1521C082AF9D391
:1048500010BD43F8321003EBC201486010BD0000E8
:104860009000002070B515460E460446FFF74EFF37
:1048700094F944100020491C01D184F8440094F9B3
:104880004510491C01D184F84500FFF75FFFA06B7C
:1048900028B92A46314604F1240000F051F8204698
:1048A000BDE87040FFF734BE10B5020014D00F48C9
:1048B000006B38B1502080F31188BFF34F8FBFF3E6
:1048C0006F8FFEE700F090F800211046FFF7E0FA46
:1048D00000F0C6FC002807D105494FF08050086061
:1048E000BFF34F8FBFF36F8F10BD0000000000209B
:1048F00004ED00E002490A6A0260C968416070473D
:104900000000002001490120C8617047000000201C
:1049100010B50C4650B1094909681831FFF7D1FEAE
:104920002046BDE810400121FFF7B2BA502080F3C5
:104930001188BFF34F8FBFF36F8FFEE70000002099
:1049400070B514460D4668B10A4909681831FFF779
:10495000D0FE0CB14FF0FF3521462846BDE870402F
:10496000FFF796BA502080F31188BFF34F8FBFF343
:104970006F8FFEE7000000201CB517480024CDE92A
:1049800000402346822215A1164800F03FFB012873
:1049900003D100F0C7FC012809D0401C1AD15020D7
:1049A00080F31188BFF34F8FBFF36F8FFEE7502066
:1049B00080F31188BFF34F8FBFF36F8F06484FF01E
:1049C000FF312C38816201214161C460BDE81C4087
:1049D00000F040B81CBD00002C00002049444C45AC
:1049E00000000000154100080248016B491C0163EA
:1049F00070470000000000201448016B11B1012134
:104A0000C16170470021C1610169B1FA81F1C1F151
:104A10001F0101EB81020E4951F822306BB101EB0D
:104A2000820101F108034A6852684A609A4201D142
:104A300052684A60D16801607047502080F3118845
:104A4000BFF34F8FBFF36F8FFEE700000000002021
:104A5000D00000201CB537480168374A914207D181
:104A6000502080F31188BFF34F8FBFF36F8FFEE7A5
:104A700000683149491E884207D1502080F31188CF
:104A8000BFF34F8FBFF36F8FFEE72C49087801907B
:104A9000FF20087008788DF800009DF800009DF850
:104AA000002000F0F000904207D0502080F31188E1
:104AB000BFF34F8FBFF36F8FFEE79DF80000204AD2
:104AC00000F0500010700720906005E09DF8003065
:104AD0005B008DF80030401E9DF800301B06F5D4B9
:104AE0009060032807D0502080F31188BFF34F8FC8
:104AF000BFF36F8FFEE74FF440709060019808702D
:104B00000C482030016841F470010160016841F0F7
:104B100070410160FFF75CFE00205060FBF762FB14
:104B20000848016841F040410160FBF747FB002065
:104B30001CBD000000ED00E071C20F4100E400E088
:104B40005000002034EF00E010B5502080F31188B1
:104B5000BFF34F8FBFF36F8F00F098FA18B104497D
:104B60004FF080500860002080F3118810BD0000D5
:104B700004ED00E070B50E46050013D0D6B105FB7C
:104B800006F04830FFF7FAFC040009D004F14801B0
:104B900020468EB10160C0E90F56012100F00EF8E9
:104BA000204670BD502080F31188BFF34F8FBFF3B4
:104BB0006F8FFEE70020E4E70060ECE770B50D467C
:104BC000040025D0FFF7A2FDD4E90F20216802FBE5
:104BD000001161600021A1632168A1600A46D4E947
:104BE0000F01401E00FB0121E16021464FF0FF3024
:104BF00001F8440F487004F110008DB1FFF753FD28
:104C000004F12400FFF74FFDFFF7A0FD012070BD68
:104C1000502080F31188BFF34F8FBFF36F8FFEE7F3
:104C200021690029F0D000F0E1FA0028ECD0044915
:104C30004FF080500860BFF34F8FBFF36F8FE3E7F3
:104C400004ED00E02DE9FF4782B01D468A464FF093
:104C50000008040003D0BAF1000F08D011E0502082
:104C600080F31188BFF34F8FBFF36F8FFEE7206C87
:104C700038B1502080F31188BFF34F8FBFF36F8F8F
:104C8000FEE7022D0AD1E06B012807D0502080F307
:104C90001188BFF34F8FBFF36F8FFEE700F0E2F98B
:104CA0003F4F4FF000094FF0805648B9049838B193
:104CB000502080F31188BFF34F8FBFF36F8FFEE753
:104CC000FFF724FDA06BE16B884207D3022D05D0CE
:104CD0000498D0B1B8F1000F1AD01EE02A46514610
:104CE0002046FFF7B0F9616A19B104F1240000F021
:104CF0007DFA20B13E60BFF34F8FBFF36F8FFFF798
:104D000025FD012006B0BDE8F087FFF71FFD22E07A
:104D10006846FFF7EFFD4FF00108FFF717FDFFF7BB
:104D200063FEFFF7F3FC94F94400401C01D184F8C2
:104D3000449094F94500401C01D184F84590FFF758
:104D400005FD04A9684600F027F930B12046FFF7B9
:104D5000DFFB00F085FA0020D4E7FFF7D7FCA06B5B
:104D6000E16B884213D1FFF7F1FC04F110000499C4
:104D7000FFF7CEFD2046FFF7CBFB00F071FA0028CD
:104D80009ED13E60BFF34F8FBFF36F8F98E7FFF761
:104D9000DDFC2046FFF7BCFB00F062FA90E7000064
:104DA00004ED00E02DE9F0471F46904689460400D7
:104DB00003D0B9F1000F08D011E0502080F3118822
:104DC000BFF34F8FBFF36F8FFEE7206C38B15020D9
:104DD00080F31188BFF34F8FBFF36F8FFEE7022F71
:104DE0000AD1E06B012807D0502080F31188BFF36F
:104DF0004F8FBFF36F8FFEE7FFF7F6FC5020EFF306
:104E0000118680F31188BFF34F8FBFF36F8FA06BB4
:104E1000E16B884206D3022F04D0002086F311886C
:104E2000BDE8F08794F945503A4649462046FFF7D9
:104E30000AF9681C04D06D1C84F845500120EDE788
:104E4000606A0028FAD004F1240000F0CFF90028AD
:104E5000F4D0B8F1000FF1D00121C8F80010EDE74F
:104E60002DE9F747002683B08A46040003D0BAF143
:104E7000000F08D011E0502080F31188BFF34F8F4E
:104E8000BFF36F8FFEE7206C38B1502080F311889C
:104E9000BFF34F8FBFF36F8FFEE700F0E3F8DFF84B
:104EA000F4804FF000094FF0805748B9059838B1A9
:104EB000502080F31188BFF34F8FBFF36F8FFEE751
:104EC000FFF724FCA56BC5B151462046FFF7A8F8B3
:104ED0006D1EA563206950B104F1100000F086F941
:104EE00028B1C8F80070BFF34F8FBFF36F8FFFF783
:104EF0002DFC012006B0BDE8F087059808B11EB171
:104F000006E0FFF723FC27E06846FFF7F3FC0126E5
:104F1000FFF71CFCFFF768FDFFF7F8FB94F944006E
:104F2000401C01D184F8449094F94500401C01D103
:104F300084F84590FFF70AFC05A9684600F02CF8B4
:104F4000002820460AD0FFF7E3FA00F089F920464E
:104F5000FFF79AF90028B3D00020CBE7FFF794F9C8
:104F600090B104F124000599FFF7D2FC2046FFF729
:104F7000CFFA00F075F90028A2D1C8F80070BFF38D
:104F80004F8FBFF36F8F9BE72046FFF7C1FA00F00A
:104F900067F995E704ED00E02DE9F0410C460500C6
:104FA00011D0C4B1FFF7B2FB174BDA686E68206806
:104FB000911B471C17D02F681B6A9F4219D096423D
:104FC00017D8012410E0502080F31188BFF34F8FD1
:104FD000BFF36F8FFEE7502080F31188BFF34F8F30
:104FE000BFF36F8FFEE70024FFF7B0FB2046BDE85C
:104FF000F081884205D9401A20602846FFF77AFCE4
:10500000F1E700202060DCE7000000202DE9FF5FD1
:105010008346DDE90E87994616468A469000FFF7DB
:10502000ADFA05001AD05020FFF7A8FA040012D0FC
:1050300025630021CDE90241CDE900874B46324688
:1050400051465846FFF796F82046FEF759FF0120D3
:1050500004B0BDE8F09F2846FFF78CFB4FF0FF300F
:10506000F6E700000548416919B1006B18B100204E
:1050700070470120704702207047000000000020A8
:105080000148C06870470000000000202DE9F04191
:105090002E4C0027206B40B1A069401CA061E06944
:1050A00000B101273846BDE8F081E668761CE6606D
:1050B00013D1606B006838B1502080F31188BFF3C2
:1050C0004F8FBFF36F8FFEE7606BA16B6163A063CF
:1050D000206A401C2062FFF79BF9A06ADFF870800D
:1050E000864209D3606B006880B1606BC068C56898
:1050F000686886420DD2A0622068C06A00EB800119
:1051000058F821000128CAD90127C8E74FF0FF301D
:10511000F1E7281DFFF7B4FAA86A18B105F11800E5
:10512000FFF7AEFAE86A012122698140114321614B
:1051300000EB800108EB8100291DFFF7DAFAE86A2D
:105140002168C96A8842CDD30127CBE7000000203F
:10515000D000002070B504004FF0000140D0214D78
:105160002868844207D0502080F31188BFF34F8F06
:10517000BFF36F8FFEE7606C38B1401E6064236C34
:10518000E26A9A422CD040B12AE0502080F3118884
:10519000BFF34F8FBFF36F8FFEE7201DFFF770FA4D
:1051A000114A012150B9E06A00EB800352F8233024
:1051B00023B92B6901FA00F083432B61206CE06274
:1051C000C0F10500A061E06A2B69814019432961A3
:1051D00000EB800002EB8000211DFFF78AFA01211D
:1051E000084670BD00000020D00000202DE9F041ED
:1051F000C068C468ACB104F118000746FFF740FA74
:10520000154D286B0126A0B139461448FFF771FAF5
:10521000E06A2968C96A88421CD90120EE61BDE8AC
:10522000F081502080F31188BFF34F8FBFF36F8F51
:10523000FEE7201DFFF724FAE16A2A6906FA01F069
:105240001043286101EB810004498C3901EB800097
:10525000211DDBE70020E2E7000000205C010020C8
:105260002DE9F0472C4D00242746286B38B1FFF775
:105270004DFA286B401E2863286B40B146E0502051
:1052800080F31188BFF34F8FBFF36F8FFEE7A968DC
:10529000224E0120D1B3A6F18C0980463068E8B1D6
:1052A000F068C46804F11800FFF7EAF9201DFFF761
:1052B000E7F9E06A2A6908FA00F11143296100EB75
:1052C000800109EB8100211DFFF713FAE06A2968CC
:1052D000C96A8842E2D3C5F81C80DFE70CB1FFF74A
:1052E00097F8AC6944B14646FFF7D0FE00B1EE61D5
:1052F000641EF9D10020A861E86938B10849012786
:1053000038070860BFF34F8FBFF36F8FFFF71EFAA8
:105310003846BDE8F0870000000000205C01002056
:1053200004ED00E01CB5FEF753FE0D48006868B1BF
:105330000B490220091DCDE9000100234FF48272C0
:1053400008A10A48FFF762FE002807D1502080F329
:105350001188BFF34F8FBFF36F8FFEE71CBD0000B6
:105360003C000020546D722053766300ED44000829
:10537000FEB51E4613460200089D4FF0000014D0F3
:10538000124C2768002F0FD0CDE900130292062996
:1053900015DAFFF767FE02284FF000030DD0002258
:1053A00069462068FFF74EFCFEBD502080F311884F
:1053B000BFF34F8FBFF36F8FFEE72A46F0E700235E
:1053C000324669463846FFF7EDFCFEBD3C00002042
:1053D0000006101600061016000000000000000075
:1053E000010203040607080900000000010203048B
:1053F0000004000200060001000500030007800011
:1054000080048002800680018005800380074000C0
:105410004004400240064001400540034007C000F0
:10542000C004C002C006C001C005C003C007200000
:105430002004200220062001200520032007A000D0
:10544000A004A002A006A001A005A003A007600080
:105450006004600260066001600560036007E000B0
:10546000E004E002E006E001E005E003E0071000F0
:105470001004100210061001100510031007900010
:1054800090049002900690019005900390075000C0
:105490005004500250065001500550035007D000F0
:1054A000D004D002D006D001D005D003D007300000
:1054B0003004300230063001300530033007B000D0
:1054C000B004B002B006B001B005B003B007700080
:1054D0007004700270067001700570037007F000B0
:1054E000F004F002F006F001F005F003F007080008
:1054F00008040802080608010805080308078800D0
:10550000880488028806880188058803880748007F
:105510004804480248064801480548034807C800AF
:10552000C804C802C806C801C805C803C8072800BF
:105530002804280228062801280528032807A8008F
:10554000A804A802A806A801A805A803A80768003F
:105550006804680268066801680568036807E8006F
:10556000E804E802E806E801E805E803E8071800AF
:1055700018041802180618011805180318079800CF
:10558000980498029806980198059803980758007F
:105590005804580258065801580558035807D800AF
:1055A000D804D802D806D801D805D803D8073800BF
:1055B0003804380238063801380538033807B8008F
:1055C000B804B802B806B801B805B803B80778003F
:1055D0007804780278067801780578037807F8006F
:1055E000F804F802F806F801F805F803F8070400D3
:1055F00004040402040604010405040304078400EF
:10560000840484028406840184058403840744009E
:105610004404440244064401440544034407C400CE
:10562000C404C402C406C401C405C403C4072400DE
:105630002404240224062401240524032407A400AE
:10564000A404A402A406A401A405A403A40764005E
:105650006404640264066401640564036407E4008E
:10566000E404E402E406E401E405E403E4071400CE
:1056700014041402140614011405140314079400EE
:10568000940494029406940194059403940754009E
:105690005404540254065401540554035407D400CE
:1056A000D404D402D406D401D405D403D4073400DE
:1056B0003404340234063401340534033407B400AE
:1056C000B404B402B406B401B405B403B40774005E
:1056D0007404740274067401740574037407F4008E
:1056E000F404F402F406F401F405F403F4070C00E6
:1056F0000C040C020C060C010C050C030C078C00AE
:105700008C048C028C068C018C058C038C074C005D
:105710004C044C024C064C014C054C034C07CC008D
:10572000CC04CC02CC06CC01CC05CC03CC072C009D
:105730002C042C022C062C012C052C032C07AC006D
:10574000AC04AC02AC06AC01AC05AC03AC076C001D
:105750006C046C026C066C016C056C036C07EC004D
:10576000EC04EC02EC06EC01EC05EC03EC071C008D
:105770001C041C021C061C011C051C031C079C00AD
:105780009C049C029C069C019C059C039C075C005D
:105790005C045C025C065C015C055C035C07DC008D
:1057A000DC04DC02DC06DC01DC05DC03DC073C009D
:1057B0003C043C023C063C013C053C033C07BC006D
:1057C000BC04BC02BC06BC01BC05BC03BC077C001D
:1057D0007C047C027C067C017C057C037C07FC004D
:1057E000FC04FC02FC06FC01FC05FC03FC070200B7
:1057F00002040202020602010205020302078200FD
:1058000082048202820682018205820382074200AC
:105810004204420242064201420542034207C200DC
:10582000C204C202C206C201C205C203C2072200EC
:105830002204220222062201220522032207A200BC
:10584000A204A202A206A201A205A203A20762006C
:105850006204620262066201620562036207E2009C
:10586000E204E202E206E201E205E203E2071200DC
:1058700012041202120612011205120312079200FC
:1058800092049202920692019205920392075200AC
:105890005204520252065201520552035207D200DC
:1058A000D204D202D206D201D205D203D2073200EC
:1058B0003204320232063201320532033207B200BC
:1058C000B204B202B206B201B205B203B20772006C
:1058D0007204720272067201720572037207F2009C
:1058E000F204F202F206F201F205F203F2070A00F4
:1058F0000A040A020A060A010A050A030A078A00BC
:105900008A048A028A068A018A058A038A074A006B
:105910004A044A024A064A014A054A034A07CA009B
:10592000CA04CA02CA06CA01CA05CA03CA072A00AB
:105930002A042A022A062A012A052A032A07AA007B
:10594000AA04AA02AA06AA01AA05AA03AA076A002B
:105950006A046A026A066A016A056A036A07EA005B
:10596000EA04EA02EA06EA01EA05EA03EA071A009B
:105970001A041A021A061A011A051A031A079A00BB
:105980009A049A029A069A019A059A039A075A006B
:105990005A045A025A065A015A055A035A07DA009B
:1059A000DA04DA02DA06DA01DA05DA03DA073A00AB
:1059B0003A043A023A063A013A053A033A07BA007B
:1059C000BA04BA02BA06BA01BA05BA03BA077A002B
:1059D0007A047A027A067A017A057A037A07FA005B
:1059E000FA04FA02FA06FA01FA05FA03FA070600BF
:1059F00006040602060606010605060306078600DB
:105A0000860486028606860186058603860746008A
:105A10004604460246064601460546034607C600BA
:105A2000C604C602C606C601C605C603C6072600CA
:105A30002604260226062601260526032607A6009A
:105A4000A604A602A606A601A605A603A60766004A
:105A50006604660266066601660566036607E6007A
:105A6000E604E602E606E601E605E603E6071600BA
:105A700016041602160616011605160316079600DA
:105A8000960496029606960196059603960756008A
:105A90005604560256065601560556035607D600BA
:105AA000D604D602D606D601D605D603D6073600CA
:105AB0003604360236063601360536033607B6009A
:105AC000B604B602B606B601B605B603B60776004A
:105AD0007604760276067601760576037607F6007A
